JAG021134CEM         2M0000015868700000000000120230401 LEDER                                   NLA                  000001GB  0000000000004000000000000000400000000000002000000000000000200000   BRBREBREAZ04609900 

JAG021134JEF         2M0000001787400000000000120230401 LEDER                                   NLA                  000001GB  0000000000000500000000000000010000000000001000000000000000100000   BRBREBREAZ04609900 

JAG021134NED         2M0000001497200000000000120230401 LEDER                                   NLA                  000001GB  0000000000000300000000000000400000000000000150000000000000015000   BRBREBREAZ04609900 

JAG021134SDZ         2M0000005184300000000000120230401 LEDER                                   NLA                  000001GB  0000000000002000000000000000100000000000000160000000000000120000   BRBREBREAZ04609900 

JAG021135LEG         2M0000003197400000000000120230401 LEDER                                                        000001GB  0000000000003000000000000000100000000000001000000000000000080000   BRBREBREAZ04609900 

JAG021135NED         2M0000003197400000000000120230401 LEDER                                                        000001GB  0000000000000300000000000000400000000000000150000000000000015000   BRBREBREAZ04609900 

JAG0211365           4M0000000615300000000000120220401 PISTON OUTER                                                 000001GB  0000000000000170000000000000500000000000000050000000000000005000   LILIALIAAZ0353LM00 

JAG0211371           4H0000000887000000000000120220401 SERVICE KIT                                                  000001GB  0000000000000060000000000000300000000000000115000000000000015500   ESESFESFAZ0006LM00 

JAG0211376           4M0000000494800000000000120220401 SEAL KIT                                NLA                  000001GB  0000000000000056000000000000500000000000000075000000000000007500   LILIALIAAZ0353LM00 

JAG0211422           4K0000002011300000000000120220701 VALVE HSG                               NLA                  000001GB  0000000000002549000000000002300000000000000150000000000000018000   MRMRBMRBDZ0108LM00 

JAG021162210         4P0000003239000000000000120220401 PL SHFT BRG ENG                         NLA                  000001GB  0000000000000832000000000000750000000000000130000000000000013000   LILIALIAAZ0353LM00 

JAG021162230         4J0000002808500000000000120220701 SATZ, HAUPTLAGER                        NLA                  000001GB  0000000000000876000000000000620000000000000092000000000000012300   MRMRBMRBDZ04879900 

JAG0211633           2J0000000068700000000000120220701 DICHTUNG,STEUERGEHAEUSED.               NLA                  000001GB  0000000000000010000000000000070000000000000034000000000000003400   BRBRGBRGBZ04899900 

JAG0211727           4H0000000227900000000000120220701 STREUSCHEIBE                                                 000001GB  0000000000000040000000000000100000000000000145000000000000014500   BRBRDBRDAZ0085LM00 

JAG0211730           4H0000000179600000000000120220701 STREUSCHEIBE                                                 000001GB  0000000000000060000000000001520000000000000051000000000000005100   BRBRDBRDAZ0085LM00 

JAG0211731           4H0000000270400000000000120220401 STREUSCHEIBE                                                 000001GB  0000000000000082000000000001520000000000000051000000000000005100   LILIALIAAZ0353LM00 

JAG0211732           4H0000000192700000000000120220701 STREUSCHEIBE                                                 000001GB  0000000000000065000000000001520000000000000051000000000000005100   BRBRDBRDAZ0085LM00 

JAG0211739           2J0000000074100000000000120220701 SEATING GASK                            NLA                  000001GB  0000000000000008000000000000050000000000000044000000000000019500   BRBRJBRJBZ00119900 

JAG0211871           4H0000001668400000000000120220701 ABSCHLUSSBLECH                          NLA                  000001GB  0000000000002043000000000001560000000000000810000000000000081000   BRBRABRAFZ0422LM00 

JAG0211918           4F0000001444200000000000120220701 DECKEL, KRAFTSTOFFTANK                                       000001GB  0000000000000216000000000000250000000000000150000000000000015500   BRBRGBRGBZ0489LM00 

JAG0211919           4F0000001444200000000000120220701 DECKEL, KRAFTSTOFFTANK                                       000001GB  0000000000000219000000000000180000000000000055000000000000005800   BRBRGBRGBZ0489LM00 

JAG0211920           2O0000002442700000000000120220701 TURSCHARNIER                                                 000001GB  0000000000002118000000000000920000000000000130000000000000025000   BRBRGBRGBZ0489LM00 

JAG0211922           4K0000001823200000000000120220401 TURSCHARNIER                            NLA                  000001GB  0000000000001261000000000000270000000000000088000000000000022500   LILIALIAAZ0353LM00 

JAG0211923           4K0000002061900000000000120220401 TURSCHARNIER                            NLA                  000001GB  0000000000001258000000000000270000000000000090000000000000023000   LILIALIAAZ0353LM00 

JAG0211924           4K0000001714500000000000120220401 TURSCHARNIER                            NLA                  000001GB  0000000000001246000000000000590000000000000090000000000000022300   LILIALIAAZ0353LM00 

JAG0211925           4K0000001714500000000000120220401 TURSCHARNIER                            NLA                  000001GB  0000000000001212000000000000310000000000000089000000000000012100   LILIALIAAZ0353LM00 

JAG0211929           4F0000020932700000000000120220701 SEITENVERKLEIDUNG                       NLA                  000001GB  0000000000009363000000000002000000000000000500000000000000192000   BRBRABRAFZ0422LM00 

JAG0211930           4F0000020932700000000000120220701 SEITENVERKLEIDUNG                       NLA                  000001GB  0000000000007450000000000002400000000000000600000000000000193000   BRBRABRAFZ0422LM00 

JAG0211931           4F0000020932700000000000120220701 SEITENVERKLEIDUNG                       NLA                  000001GB  0000000000008000000000000001370000000000000720000000000000202000   BRBRABRAFZ0422LM00 

JAG0211932           4F0000002310100000000000120220701 SEITENVERKLEIDUNG                       NLA                  000001GB  0000000000008000000000000003500000000000000440000000000000184000   BRBRABRAFZ0422LM00 

JAG0211937           4F0000024438700000000000120220701 DACHBLECH                               NLA                  000001GB  0000000000042000000000000002700000000000001600000000000000245000   BRBRABRAFZ0422LM00 

JAG0211940           4K0000003463500000000000120220401 RADKASTEN                               NLA                  000001GB  0000000000003000000000000003200000000000000360000000000000085000   LILIALIAAZ0353LM00 

JAG0211941           4K0000003463500000000000120220401 RADKASTEN                               NLA                  000001GB  0000000000002508000000000003500000000000000325000000000000088500   LILIALIAAZ0353LM00 

JAG0211965           4F0000004533200000000000120220401 BREMSFLUSSIGKEITSBEHALTER               NLA                  000001GB  0000000000001522000000000001780000000000000102000000000000010200   LILIALIAAZ0353LM00 

JAG0211968           4F0000000436100000000000120220401 REPAIR KIT                                                   000001PL  0000000000000040000000000000500000000000000050000000000000010000   ESESFESFAZ0006LM00 

JAG0211983           4H0000000676700000000000120220401 DICHTUNGSSATZ                           NLA                  000001GB  0000000000000030000000000000170000000000000050000000000000005000   LILIALIAAZ0353LM00 

JAG0211986           ZZ0000000046700000000000120220401 SPRENGRING                              NLA                  000010GB  0000000000000002000000000000020000000000000040000000000000004000   LILIALIAAZ03539900 

JAG0211987           2O0000000211900000000000120220401 EINLASSKANALDICHTSITZ                                        000002GB  0000000000000002000000000000110000000000000011000000000000001000   ESESCESCBZ0008LM00 

JAG0211994           ZZ0000000053900000000000120220401 SCHMIERMITTEL                           NLA                  000005GB  0000000000000003000000000000090000000000000009000000000000001400   LILIALIAAZ03539900 

JAG0212086           4K0000000024200000000000120220401 PLATTFORMVERKLEIDUNG                                         000001GB  0000000000000080000000000000300000000000000095000000000000011200   LILIALIAAZ0353LM00 

JAG0212087           4K0000000023600000000000120220401 PLATTFORMVERKLEIDUNG                    NLA                  000001GB  0000000000000072000000000000370000000000000085000000000000010200   LILIALIAAZ0353LM00 

JAG0212088           4K0000000113900000000000120220701 KOTFLUGELHALTER                         NLA                  000001GB  0000000000000290000000000000250000000000000073000000000000045300   BRBRGBRGBZ04899900 

JAG0212089           4K0000000113900000000000120220701 KOTFLUGELHALTER                         NLA                  000001GB  0000000000000290000000000000200000000000000063000000000000045400   BRBRGBRGBZ04899900 

JAG0212103           4K0000000077600000000000120220701 ABSCHLU PLATTE                          NLA                  000001GB  0000000000000080000000000000160000000000000105000000000000012000   BRBRABRAFZ0422LM00 

JAG0212104           4K0000000035400000000000120220701 ABSCHLU PLATTE                          NLA                  000001GB  0000000000075000000000000000180000000000000113000000000000010700   BRBRABRAFZ0422LM00 

JAG0212105           4K0000000066900000000000120220401 VERSTEIFUNG                                                  000001GB  0000000000000001000000000000000000000000000000000000000000000000   LILIALIAAZ0353LM00 

JAG0212106           4K0000000034400000000000120220401 VERSTEIFUNG                                                  000001GB  0000000000000180000000000000250000000000000213000000000000029900   LILIALIAAZ0353LM00 

JAG0212135           4F0000005174000000000000120220401 SEITENTRAGER                            NLA                  000001GB  0000000000008000000000000002400000000000000420000000000000194000   LILIALIAAZ0353LM00 

JAG0212136           4F0000005550300000000000120220401 SEITENTRAGER                            NLA                  000001GB  0000000000008000000000000002800000000000000420000000000000190000   LILIALIAAZ0353LM00 

JAG0212137           2O0000000615000000000000120220401 ABSCHIRMBLECH                           NLA                  000001GB  0000000000001500000000000002800000000000000690000000000000069000   LILIALIAAZ0353LM00 

JAG0212138           2O0000001064300000000000120220701 ABSCHIRMBLECH                           NLA                  000001GB  0000000000001500000000000002870000000000000700000000000000070000   BRBRABRAFZ0422LM00 

JAG0212145           4K0000000066900000000000120220401 FULLBLECH                               NLA                  000001GB  0000000000000106000000000000200000000000000110000000000000021000   LILIALIAAZ0353LM00 

JAG0212146           4K0000000066900000000000120220401 FULLBLECH                               NLA                  000001GB  0000000000000110000000000000180000000000000140000000000000014000   LILIALIAAZ0353LM00 

JAG0212149           2K0000000129400000000000120220401 RADKASTENBLECH                          NLA                  000001GB  0000000000000595000000000000000000000000000000000000000000000000   LILIALIAAZ0353JC00 

JAG0212151           2O0000000956500000000000120220401 RADKASTENBLECH                          NLA                  000001GB  0000000000002000000000000002000000000000000400000000000000085000   LILIALIAAZ0353LM00 

JAG0212152           2O0000001180100000000000120220701 RADKASTENBLECH                          NLA                  000001GB  0000000000005087000000000001600000000000000420000000000000086000   BRBRABRAFZ0422LM00 

JAG0212179           2O0000000684800000000000120220401 MOTORHAUBENSCHLOSS                                           000001GB  0000000000000085000000000000300000000000000080000000000000008000   LILIALIAAZ0353LM00 

JAG0212185           4K0000000171400000000000120220701 VERSCHLUSSHALTER                        NLA                  000001GB  0000000000000155000000000000600000000000000122000000000000013000   BRBRGBRGBZ04899900 

JAG0212213           2O0000000004300000000000120220701 SEAL RETAINE                            02AKP245          U  000001GB  0000000000000001000000000000000000000000000000000000000000000000   BRBRGBRGBZ04899900 

JAG0212252           4J0000000735000000000000120220701 RITZELLAGER                                                  000001FR  0000000000000666000000000000500000000000000075000000000000007500   MRMRBMRBDZ04879900 

JAG0212264           2J0000000080900000000000120220701 BEARING NUT                             NLA                  000001GB  0000000000000060000000000000080000000000000050000000000000005500   WTWTHWTHAZ00229900 

JAG0212270           2H0000000008200000000000120220701 SCHEIBE                                                      000001GB  0000000000000004000000000000020000000000000019000000000000001900   WTWTHWTHAZ0022JC00 

JAG0212416           2O0000000718900000000000120220401 A-SAULENBLECH                           NLA                  000001GB  0000000000001149000000000000550000000000000152000000000000127200   LILIALIAAZ0353LM00 

JAG0212446           4M0000000410000000000000120220401 SATZ, BREMSSERVO                        NLA                  000001GB  0000000000000060000000000000500000000000000050000000000000010000   LILIALIAAZ0353LM00 

JAG0212456           2H0000000246800000000000120220701 DISTANZSTUECK,ZUSAMMENDR.                                    000001GB  0000000000000028000000000000270000000000000034000000000000003400   WTWTHWTHAZ00229900 

JAG02124571          4J0000008819600000000000120220701 TELLERRAD UND RITZEL                    NLA                  000001GB  0000000000006294000000000001220000000000000260000000000000027000   MRMRCMRCBZ0445JC00 

JAG02124581          2O0000012379900000000000120220701 TELLERRAD UND RITZEL                    NLA                  000001GB  0000000000008785000000000001600000000000000315000000000000031500   MRMRCMRCBZ0445LM00 

JAG0212475           4J0000000089500000000000120220701 AUSGLEICHSSCHEIBE                       NLA                  000010GB  0000000000000001000000000000010000000000000114000000000000013500   MRMRBMRBDZ04879900 

JAG0212483           4H0000000862400000000000120220701 KASTEN, TANKSTUTZEN                     NLA                  000001GB  0000000000001055000000000001800000000000000200000000000000023000   BRBREBREAZ0461JC00 

JAG0212510           4K0000000130300000000000120220701 SCHWELLERENDVERKLEIDUNG                 NLA                  000001GB  0000000000000153000000000000200000000000000180000000000000018000   BRBRABRAFZ0422LM00 

JAG0212511           4K0000000105700000000000120220401 SCHWELLERENDVERKLEIDUNG                 NLA                  000001GB  0000000000000156000000000000250000000000000180000000000000018000   LILIALIAAZ0353LM00 

JAG0212525           4H0000000024900000000000120220701 SCHLOSSFEDER                                                 000005GB  0000000000000012000000000000140000000000000014000000000000005900   WTWTHWTHAZ0022LM00 

JAG0212526           4F0000001417300000000000120220701 VERRIEGELUNG                                                 000001GB  0000000000000198000000000000500000000000000050000000000000015500   BRBRGBRGBZ0489LM00 

JAG0212527           4F0000001341700000000000120220701 VERRIEGELUNG                            NLA                  000001GB  0000000000000183000000000001520000000000000051000000000000005100   BRBRGBRGBZ0489LM00 

JAG0212765           4K0000000032500000000000120220401 AUSGLEICHSSCHEIBE                       NLA                  000001GB  0000000000000030000000000000090000000000000074000000000000010700   ESESFESFAZ0021LM00 

JAG0212784           4K0000000216800000000000120220701 LAMPENSTREUSCHEIBE                      NLA                  000001GB  0000000000000828000000000001020000000000000076000000000000007600   BRBRDBRDAZ0085LM00 

JAG0212840           4M0000001285200000000000120220401 SATZ, DICHTUNG/O-RING                   NLA                  000001GB  0000000000000039000000000000100000000000000100000000000000016000   LILIALIAAZ0353LM00 

JAG0212881           2K0000001936400000000000120220401 STEERING RAC                            NLA                  000001GB  0000000000000001000000000000000000000000000000000000000000000000   LILIALIAAZ03539900 

JAG0212889           4H0000000855500000000000120220401 SATZ                                                         000001GB  0000000000000335000000000000990000000000000255000000000000026500   ESESBESBFZ00079900 

JAG0212943           4K0000000178000000000000120220701 SATZ, UNT. MOTORDICHTG.                                      000001IT  0000000000000300000000000002010000000000000001000000000000080900   MRMRDMRDAZ0082LM00 

JAG0212974           4K0000000587000000000000120220401 B/C-SAULENABSCHLUSSBLECH                NLA                  000001GB  0000000000000001000000000000000000000000000000000000000000000000   LILIALIAAZ0353LM00 

JAG0212975           4K0000000587000000000000120220401 B/C-SAULENABSCHLUSSBLECH                NLA                  000001GB  0000000000001310000000000000400000000000000210000000000000113000   LILIALIAAZ0353LM00 

JAG0212976           4K0000000186900000000000120220401 VERLANGERUNGSBLECH                      NLA                  000001GB  0000000000000236000000000000830000000000000117000000000000031700   LILIALIAAZ0353LM00 

JAG0212977           4K0000000259100000000000120220401 VERLANGERUNGSBLECH                      NLA                  000001GB  0000000000000000000000000000000000000000000000000000000000000000   ESESBESBFZ03419900 

JAG0212983           4K0000000115800000000000120220401 ABDECKBLECH                             NLA                  000001GB  0000000000000001000000000000000000000000000000000000000000000000   LILIALIAAZ0353LM00 

JAG0212984           4K0000000120600000000000120220401 ABDECKBLECH                             NLA                  000001GB  0000000000000270000000000000400000000000000080000000000000053000   LILIALIAAZ0353LM00 

JAG0212985           4K0000000670500000000000120220401 ABSCHLUSSBLECH                          NLA                  000001GB  0000000000001970000000000001150000000000000080000000000000138500   LILIALIAAZ0353LM00 

JAG0212986           4K0000001654100000000000120220401 VERSTEIFUNG                             NLA                  000001GB  0000000000000001000000000000000000000000000000000000000000000000   LILIALIAAZ0353LM00 

JAG0212989           4K0000000241300000000000120220401 ABLAUFRINNE                             NLA                  000001GB  0000000000000490000000000000480000000000000235000000000000092000   LILIALIAAZ0353LM00 

JAG0212990           4K0000000241300000000000120220401 ABLAUFRINNE                             NLA                  000001GB  0000000000000001000000000000000000000000000000000000000000000000   LILIALIAAZ0353LM00 

JAG0212992           4F0000007634800000000000120220701 PAKETABLAGE                             NLA                  000001GB  0000000000012000000000000003600000000000000570000000000000149000   BRBREBREAZ0461LM00 

JAG0212994           4K0000000420200000000000120220401 HALTEBLECH                              NLA                  000001GB  0000000000001304000000000000510000000000000155000000000000063000   LILIALIAAZ0353LM00 

JAG0212996           4K0000004372900000000000120220401 SCHWELLERBLECH                          NLA                  000001GB  0000000000020000000000000001400000000000000430000000000000279000   LILIALIAAZ0353LM00 

JAG0212997           4K0000004372900000000000120220401 SCHWELLERBLECH                          NLA                  000001GB  0000000000020000000000000001400000000000000430000000000000279000   LILIALIAAZ0353LM00 

JAG0212998           4K0000000133800000000000120220401 ABSCHLUSSBLECH                          NLA                  000001GB  0000000000000280000000000000300000000000000070000000000000051000   LILIALIAAZ0353LM00 

JAG02134176J         4K0000000125000000000000120230401 WIDERSTAND                              NLA                  000001GB  0000000000000070000000000000500000000000000053000000000000005500   LILIALIAAZ0353LM00 

JAG0213H1453J        4H0000000004500000000000120230401 AUFSCHIEBEHALTERUNG                                          000005GB  0000000000000001000000000000005000000000000011000000000000001100   ESESFESFAZ0021LM00 

JAG0213H2023J        4H0000000000700000000000120230401 SPRENGRING                              NLA                  000005GB  0000000000000001000000000000010000000000000015000000000000001500   ESESFESFAZ0021LM00 

JAG0213H489J         4K0000000003600000000000120230401 DREIFACHCLIP                            NLA                  000010GB  0000000000000002000000000000100000000000000010000000000000001300   WTWTHWTHAZ0022LM00 

JAG0213H5270J        4K0000000025100000000000120230401 BULB HOLDER                             NLA                  000005GB  0000000000000002000000000000160000000000000016000000000000002200   BRBRDBRDAZ0116LM00 

JAG0213H6461J        2J0000000009400000000000120230401 BEFESTIGUNGSELEMENT                     NLA                  000010DE  0000000000000001000000000000200000000000000040000000000000004000   WTWTHWTHAZ00229900 

JAG0213H8329J        2K0000000003600000000000120230401 AUSWUCHTGEWICHT                         NLA                  000010GB  0000000000000015000000000000080000000000000015000000000000002200   LILIALIAAZ03539900 

JAG0213H8331J        2K0000000008300000000000120220101 AUSWUCHTGEWICHT                         NLA                  000010GB  0000000000000314000000000000500000000000000050000000000000005000   LILIALIAAZ03539900 

JAG0213H8332J        2K0000000006700000000000120230401 AUSWUCHTGEWICHT                         NLA                  000010GB  0000000000000410000000000000500000000000000050000000000000010200   LILIALIAAZ03539900 

JAG0213H8334J        2K0000000008800000000000120230401 AUSWUCHTGEWICHT                         NLA                  000010GB  0000000000000024000000000001020000000000000051000000000000005100   LILIALIAAZ03539900 

JAG0213H8335J        2K0000000019000000000000120230401 AUSWUCHTGEWICHT                         NLA                  000010GB  0000000000000024000000000001020000000000000051000000000000005100   LILIALIAAZ03539900 

JAG0213H8337J        2K0000000024200000000000120230401 AUSWUCHTGEWICHT                         NLA                  000010GB  0000000000000035000000000001520000000000000051000000000000005100   LILIALIAAZ0353JC00 

JAG0213H9056J        2H0000000024700000000000120230401 SPRENGRING                              02JZE100033       U  000005GB  0000000000000001000000000000040000000000000016000000000000001700   ESESFESFAZ0021LM00 

JAG0213H9130J        4F0000000201400000000000120230401 SCHALTER                                                     000001PL  0000000000000068000000000000510000000000000077000000000000007700   WTWTBWTBDZ00159900 

JAG0213H9166         4K0000000025200000000000120230401 NOCKE                                   NLA                  000001GB  0000000000000006000000000000050000000000000014000000000000001800   MRMRBMRBCZ0442LM00 

JAG0213H9559         4K0000000000800000000000120230401 BLECHKLEMME                             NLA                  000001GB  0000000000000004000000000000100000000000000012000000000000001400   ESESFESFAZ0021LM00 

JAG02148876J         4I0000000648300000000000120230401 VOLTAGE STAB                            NLA                  000001GB  0000000000000010000000000000500000000000000050000000000000005000   LILIALIAAZ0353LM00 

JAG02159905          4K0000001021600000000000120220401 WARNBLINKLICHTSCHALTER                  NLA                  000001PL  0000000000000070000000000001020000000000000051000000000000005100   LILIALIAAZ0353LM00 

JAG0218G8792J        4H0000000218700000000000120230401 SATTELREPARATURSATZ                                          000001SK  0000000000000060000000000000500000000000000075000000000000007500   ESESBESBFZ0007LM00 

JAG021H3339          YP0000000070800000000000120230401 DICHTUNG,STEUERGEHAEUSED.                                    000010GB  0000000000000001000000000000000000000000000000000000000000000000   MRMRDMRDBZ00639900 

JAG02209             2O0000000017800000000000120220701 BEADING P V                             NLA                  000005GB  0000000000000475000000000000050000000000000030000000000000020500   BRBREBREAZ04579900 

JAG0222G1711J        4K0000000029300000000000120230401 RETAING PLAT                            NLA                  000001GB  0000000000000030000000000000070000000000000047000000000000005000   LILIALIAAZ0353LM00 

JAG02234532J         4H0000000030800000000000120230401 SCHMIERNIPPEL                                                000005DE  0000000000000003000000000000080000000000000008000000000000001400   ESESFESFAZ0021LM00 

JAG02236389J         2J0000000076600000000000120230401 ANELLO FORO                             NLA                  000010PL  0000000000000003000000000000060000000000000025000000000000002500   WTWTHWTHAZ0022JC00 

JAG022390            4K0000000002300000000000120220701 SPLINT                                  NLA                  000050GB  0000000000000001000000000000020000000000000003000000000000002800   WTWTHWTHAZ0022LM00 

JAG02243966          4K0000000000700000000000120210401 KUPFERSCHEIBE                                                000010IT  0000000000000002000000000000030000000000000017000000000000001700   LILIMLIMDZ0381LM00 

JAG02252165A         2H0000000029000000000000120230401 SICHERUNGSMUTTER                                             000010GB  0000000000000028000000000000160000000000000023000000000000002300   WTWTHWTHAZ0022JC00 

JAG02252167J         4H0000000065500000000000120230401 SELBSTSICHERNDE MUTTER                  NLA                  000002GB  0000000000000065000000000000400000000000000100000000000000010000   ESESFESFAZ0021LM00 

JAG0227H2403J        4K0000000462200000000000120230401 STREUSCHEIBE                            02DAC4820         U  000001GB  0000000000000020000000000000250000000000000025000000000000007500   BRBRDBRDAZ0085JC00 

JAG02338023J         2O0000000017800000000000120230401 KUNSTSTOFFSTOPFEN                       NLA                  000010GB  0000000000000002000000000000080000000000000035000000000000003500   MRMRBMRBDZ0487LM00 

JAG02352423          2J0000000000600000000000120210401 FEDERKLEMME                             NLA                  000010GB  0000000000000001000000000000010000000000000025000000000000001800   WTWTHWTHAZ00229900 

JAG023610            2J0000000020900000000000120220701 VIERKANTSCHRAUBE                        NLA                  000001GB  0000000000000001000000000000080000000000000008000000000000001100   WTWTHWTHAZ00229900 

JAG0237H3494         4H0000000000800000000000120230401 SPRENGRING                              NLA                  000010GB  0000000000000020000000000000150000000000000030000000000000003000   ESESFESFAZ0021LM00 

JAG0237H3957         2J0000000000600000000000120230401 SCHRAUBE                                                     000010GB  0000000000000001000000000000000000000000000000000000000000000000   WTWTHWTHAZ00229900 

JAG0237H6171J        ZZ0000000116200000000000120230401 BREMSSATZ                               NLA                  000001GB  0000000000000020000000000000200000000000000030000000000000003000   LILIALIAAZ0353JC00 

JAG0237H7193C        4G0000000278200000000000120230401 CUT KEY                                                      000001GB D0000000000000020000000000000100000000000000010000000000000003000   BRBREBREAZ00309900 

JAG0237H7193J        4G0000000130100000000000120230401 SCHLUSSELROHLING                                             000001IT  0000000000000012000000000000070000000000000030000000000000005800   BRBREBREAZ0030LM00 

JAG0237H7627J        4K0000000234300000000000120230401 DECKEL, EINFUELLSTUTZEN                 NLA                  000001US  0000000000000040000000000000450000000000000045000000000000008500   ESESFESFAZ0021LM00 

JAG0237H8759J        JM0000000251300000000000120230401 STREUSCHEIBE UND DICHTUNG               NLA                  000001GB  0000000000000060000000000000200000000000000065000000000000017000   BRBRDBRDAZ00859900 

JAG023845            4H0000000510900000000000120220401 ROLLENLAGER                                                  000001US  0000000000000632000000000001020000000000000051000000000000010200   ESESDESDBZ0192LM00 

JAG023854            4H0000000015500000000000120220401 SCHEIBE                                 NLA                  000010GB  0000000000000001000000000000120000000000000110000000000000011000   ESESFESFAZ0021LM00 

JAG023855            4H0000000026800000000000120220401 SCHEIBE                                 NLA                  000010GB  0000000000000020000000000000010000000000000073000000000000007300   LILIALIAAZ0353LM00 

JAG023860            4H0000000009000000000000120220701 AUSGLEICHSSCHEIBE                       NLA                  000010GB  0000000000000001000000000000010000000000000075000000000000007500   MRMRBMRBDZ0487LM00 

JAG023861            4H0000000009000000000000120220701 AUSGLEICHSSCHEIBE                       NLA                  000010GB  0000000000000002000000000000010000000000000075000000000000007500   MRMRBMRBDZ0487LM00 

JAG023862            4H0000000020000000000000120220701 AUSGLEICHSSCHEIBE                       NLA                  000010GB  0000000000000003000000000000010000000000000076000000000000007600   MRMRBMRBDZ0487LM00 

JAG023931            4M0000000081900000000000120220401 DICHTUNG                                                     000005GB  0000000000000037000000000000040000000000000250000000000000045000   LILIALIAAZ0353LM00 

JAG023936            4K0000000034500000000000120220701 AUSGLEICHSSCHEIBE                                            000010GB  0000000000000001000000000000010000000000000057000000000000005700   MRMRBMRBDZ0487LM00 

JAG023937            4K0000000034500000000000120220701 AUSGLEICHSSCHEIBE                                            000025GB  0000000000000002000000000000010000000000000057000000000000005700   MRMRBMRBDZ0487LM00 

JAG023938            4K0000000034500000000000120220701 AUSGLEICHSSCHEIBE                                            000005GB  0000000000000005000000000000010000000000000057000000000000005700   MRMRBMRBDZ0487LM00 

JAG024031ZN          2K0000000000300000000000120230401 PLAIN WSHR                              NLA                  000005GB  0000000000000001000000000000010000000000000001000000000000001300   LILIALIAAZ03539900 

JAG024144            4K0000000359000000000000120220401 O RING                                  NLA                  000001GB  0000000000000026000000000000050000000000000058000000000000005800   LILIALIAAZ0353LM00 

JAG02418072          2F0000000719200000000000120230401 KABEL - ABGESCHLOSSEN                                        000001DE  0000000000000015000000000000050000000000000100000000000000017000   WTWTBWTBFZ03509900 

JAG02418078          2F0000000829500000000000120230401 KABEL - ABGESCHLOSSEN                                        000001DE  0000000000000015000000000000050000000000000100000000000000017000   WTWTBWTBFZ03509900 

JAG02418083          2F0000000405300000000000120230401 KABEL - ABGESCHLOSSEN                                        000001DE  0000000000000015000000000000050000000000000100000000000000017000   WTWTBWTBFZ03509900 

JAG02418096          2F0000000917300000000000120220701 KABEL - ABGESCHLOSSEN                                        000001DE  0000000000000025000000000000500000000000000120000000000000016000   WTWTBWTBFZ03509900 

JAG02418100          2F0000000430300000000000120230401 KABEL - ABGESCHLOSSEN                                        000001DE  0000000000000015000000000000050000000000000100000000000000017000   WTWTBWTBFZ03509900 

JAG02418104          2M0000000317900000000000120230401 ANSCHLUSS                                                    000001CZ  0000000000000036000000000000300000000000000030000000000000004000   WTWTEWTEAZ0486LK00 

JAG02418105          2F0000000159800000000000120230401 ANSCHLUSS                                                    000001DE  0000000000000086000000000000300000000000000030000000000000004000   WTWTBWTBFZ03509900 

JAG02418107          2F0000000772700000000000120230401 ANSCHLUSS                                                    000001US  0000000000000070000000000001020000000000000051000000000000005100   WTWTBWTBFZ03509900 

JAG02418108          2F0000000767500000000000120230401 ANSCHLUSS                                                    000001US  0000000000000086000000000000300000000000000030000000000000004000   WTWTBWTBFZ03509900 

JAG02418109          2M0000000767500000000000120230401 ANSCHLUSS                                                    000001US  0000000000000086000000000000300000000000000030000000000000004000   WTWTBWTBFZ03509900 

JAG02418112          2F0000000974400000000000120230401 ANSCHLUSS                                                    000001GB  0000000000000086000000000000300000000000000030000000000000004000   WTWTBWTBFZ03509900 

JAG02418113          2F0000000930400000000000120230401 ANSCHLUSS                                                    000001GB  0000000000000086000000000000300000000000000030000000000000004000   WTWTBWTBFZ03509900 

JAG02DBC12071        4J0000000484400000000000120230401 KABEL                                   NLA                  000001GB  0000000000000257000000000000350000000000000040000000000000072000   MRMRCMRCBZ0488JC00 

JAG02DBC12072D       2Z0000000000000000000000120180401 SCHLAUCH                                                     000001GB  0000000000000050000000000000500000000000000050000000000000020000   MRMREMRECZ02529900 

JAG02DBC12078        2J0000001330800000000000120230401 SICHERUNGSKASTEN                        02DBC11774        U  000001GB  0000000000000409000000000002070000000000000080000000000000015700   WTWTBWTBEZ0053JC00 

JAG02DBC12079        2J0000001330800000000000120230401 SICHERUNGSKASTEN                        02DBC11775        U  000001GB  0000000000000409000000000002070000000000000080000000000000015700   WTWTBWTBEZ0053JC00 

JAG02DBC12082        2O0000000095100000000000120230401 J-CONNECTOR                             NLA                  000001GB  0000000000000018000000000000250000000000000107000000000000012800   WTWTHWTHAZ00229900 

JAG02DBC12083        4K0000000591900000000000120230401 ANSCHLUSSKABEL                          NLA                  000001GB  0000000000000018000000000000190000000000000099000000000000012200   WTWTBWTBFZ03509900 

JAG02DBC12084        4H0000000978300000000000120230401 ANSCHLUSSKABEL                          NLA                  000001GB  0000000000000018000000000000190000000000000089000000000000013500   WTWTBWTBFZ03509900 

JAG02DBC12087        4J0000000265100000000000120230401 KABELBAUM, ANSCHLUSS                    NLA                  000001GB  0000000000000062000000000000150000000000000140000000000000017000   WTWTBWTBFZ0350JC00 

JAG02DBC12092        ZZ0000000537300000000000120230401 KABELBAUM                               NLA                  000001GB  0000000000000362000000000000400000000000000060000000000000036000   LILIALIAAZ0353JC00 

JAG02DBC12093        ZZ0000000537300000000000120230401 KABELBAUM                               NLA                  000001GB  0000000000000376000000000000350000000000000230000000000000031000   LILIALIAAZ03539900 

JAG02DBC12097        OP0000004177100000000000120230401 KABEL, BATTERIE                         02DBC12346        U  000001GB  0000000000000001000000000000000000000000000000000000000000000000   WTWTBWTBAZ0113JC00 

JAG02DBC12098        OP0000000339200000000000120230401 KABEL, BATTERIE                         02DBC12347        U  000001GB  0000000000000001000000000000000000000000000000000000000000000000   WTWTBWTBAZ0113JC00 

JAG02DBC12115        4H0000000996600000000000120230401 MODUL, KRAFTSTOFFPUMPE                                       000001GB  0000000000000068000000000000220000000000000125000000000000015000   WTWTBWTBBZ01829900 

JAG02DBC12116        4I0000001285800000000000120230401 ENTSTORMODUL                            NLA                  000001GB  0000000000000110000000000000360000000000000122000000000000012000   WTWTBWTBBZ01829900 

JAG02DBC12119        2J0000000413400000000000120230401 ZIGARETTENANZUNDERELEMENT                                    000001TN  0000000000000027000000000000400000000000000030000000000000003000   WTWTHWTHAZ00229900 

JAG02DBC12131        2J0000000056100000000000120230401 DIODE                                   NLA                  000001JP  0000000000000001000000000000030000000000000003000000000000003200   WTWTBWTBEZ00539900 

JAG02DBC12132        LP0000000141500000000000120230401 GLUEHLAMPE                              NLA                  000001GB  0000000000000001000000000000090000000000000009000000000000001400   BRBRDBRDAZ01169900 

JAG02DBC12133        LP0000000051400000000000120220701 GLUEHLAMPE                              NLA                  000001GB  0000000000000001000000000000120000000000000012000000000000001200   BRBRDBRDAZ01169900 

JAG02DBC12140        2H0000002055100000000000120230401 TEMPERATURWARNMODUL                     NLA                  000001GB  0000000000000105000000000001020000000000000051000000000000010200   WTWTBWTBBZ0182JC00 

JAG02DBC12142        4H0000005606200000000000120230401 SCHALTERFELD                            NLA                  000001GB  0000000000000452000000000001030000000000000103000000000000023000   BRBREBREAZ0460JC00 

JAG02DBC12143        4F0000005933000000000000120230401 SCHALTERFELD                            NLA                  000001GB  0000000000000464000000000001020000000000000102000000000000023000   BRBREBREAZ0460JC00 

JAG02DBC12174        LP0000000141500000000000120230401 GLUEHLAMPE                              NLA                  000001JP  0000000000000001000000000000060000000000000006000000000000002000   BRBRDBRDAZ01169900 

JAG02DBC12175        4F0000003975500000000000120230401 CARAVAN/ANHANGERMODUL                   NLA                  000001GB  0000000000002833000000000002300000000000000230000000000000023000   LILIALIAAZ0353LM00 

JAG02DBC12183        4I0000000543600000000000120230401 THERMOSCHALTER                                               000001GB  0000000000000048000000000000200000000000000030000000000000008000   WTWTBWTBDZ00159900 

JAG02DBC12190        4H0000000032400000000000120230401 FUEHRUNG                                NLA                  000001GB  0000000000000026000000000000100000000000000010000000000000002000   LILIALIAAZ0353LM00 

JAG02DBC12191        2F0000001634300000000000120230401 KABELBAUM                               NLA                  000001GB  0000000000000062000000000000100000000000000110000000000000065000   WTWTBWTBFZ03509900 

JAG02DBC12229        4F0000016879500000000000120230401 STEUERMODUL                             NLA                  000001GB  0000000000000271000000000002030000000000000051000000000000012700   WTWTBWTBBZ0182LM00 

JAG02DBC12247        4F0000000677800000000000120230401 KABELBAUM                               NLA                  000001GB  0000000000007034000000000002000000000000000580000000000000050000   LILIALIAAZ0353JC00 

JAG02DBC12248        2F0000018111500000000000120230401 LH SIDE HARNESS                         02LMB3050AA       U  000001GB  0000000000000001000000000000000000000000000000000000000000000000   WTWTBWTBFZ03509900 

JAG02DBC12265        LP0000000178100000000000120230401 GLUEHLAMPE                              02C2S15076        U  000001DE  0000000000000020000000000000250000000000000025000000000000005000   BRBRDBRDAZ01169900 

JAG02418281          2F0000000321700000000000120230401 KABEL - ABGESCHLOSSEN                                        000001DE  0000000000000030000000000000200000000000000150000000000000020000   WTWTBWTBFZ03504A00 

JAG02418283          2F0000000205000000000000120230401 KABEL - ABGESCHLOSSEN                                        000001DE  0000000000000035000000000001100000000000000160000000000000011000   WTWTBWTBFZ03509900 

JAG02418285          2F0000000284900000000000120230401 KABEL - ABGESCHLOSSEN                                        000001DE  0000000000000025000000000000500000000000000120000000000000016000   WTWTBWTBFZ03504N00 

JAG02418286          2F0000000293300000000000120230401 KABEL - ABGESCHLOSSEN                                        000001DE  0000000000000025000000000000500000000000000120000000000000016000   WTWTBWTBFZ03504N00 

JAG02418287          2F0000000791300000000000120230401 KABEL - ABGESCHLOSSEN                                        000001DE  0000000000000040000000000000100000000000000050000000000000010000   WTWTBWTBFZ03504G00 

JAG02418288          2F0000000276600000000000120230401 KABEL - ABGESCHLOSSEN                                        000001DE  0000000000000025000000000000500000000000000120000000000000016000   WTWTBWTBFZ03504N00 

JAG02418289          2F0000000659000000000000120230401 KABEL - ABGESCHLOSSEN                                        000001DE  0000000000000040000000000000100000000000000100000000000000015000   WTWTBWTBFZ03509900 

JAG02418291          2F0000000361400000000000120230401 KABEL - ABGESCHLOSSEN                                        000001DE  0000000000000025000000000000500000000000000120000000000000016000   WTWTBWTBFZ03504N00 

JAG02418292          2F0000000569000000000000120230401 KABEL - ABGESCHLOSSEN                                        000001DE  0000000000000025000000000000500000000000000120000000000000016000   WTWTBWTBFZ03504N00 

JAG02418293          2F0000000301700000000000120230401 KABEL - ABGESCHLOSSEN                                        000001DE  0000000000000025000000000000500000000000000120000000000000016000   WTWTBWTBFZ03509900 

JAG02418294          2F0000000939400000000000120230401 KABEL - ABGESCHLOSSEN                                        000001DE  0000000000000020000000000000200000000000000150000000000000020000   WTWTBWTBFZ03504A00 

JAG02418295          2F0000000404800000000000120230401 KABEL - ABGESCHLOSSEN                                        000001DE  0000000000000025000000000000100000000000000100000000000000015000   WTWTBWTBFZ03509900 

JAG02418296          2F0000000341000000000000120230401 KABEL - ABGESCHLOSSEN                                        000001DE  0000000000000050000000000000100000000000000100000000000000018000   WTWTBWTBFZ03504A00 

JAG02418297          2F0000000250300000000000120230401 KABEL - ABGESCHLOSSEN                                        000001DE  0000000000000025000000000000500000000000000120000000000000016000   WTWTBWTBFZ03504N00 

JAG02418298          2F0000000546000000000000120230401 KABEL - ABGESCHLOSSEN                                        000001DE  0000000000000025000000000000500000000000000120000000000000016000   WTWTBWTBFZ03504N00 

JAG02418299          2F0000000421600000000000120230401 KABEL - ABGESCHLOSSEN                                        000001DE  0000000000000025000000000000500000000000000120000000000000016000   WTWTBWTBFZ03504N00 

JAG02418300          2F0000000229700000000000120230401 KABEL - ABGESCHLOSSEN                                        000001DE  0000000000000025000000000000500000000000000120000000000000016000   WTWTBWTBFZ03504N00 

JAG02418301          2F0000000865100000000000120230401 KABEL - ABGESCHLOSSEN                                        000001DE  0000000000000025000000000000500000000000000120000000000000016000   WTWTBWTBFZ03504N00 

JAG02418302          2F0000000311500000000000120230401 KABEL - ABGESCHLOSSEN                                        000001DE  0000000000000032000000000000100000000000000100000000000000018000   WTWTBWTBFZ03509900 

JAG02418303          2F0000001327600000000000120230401 KABEL - ABGESCHLOSSEN                                        000001DE  0000000000000040000000000000100000000000000050000000000000010000   WTWTBWTBFZ03504G00 

JAG02418304          2F0000000209700000000000120230401 KABEL - ABGESCHLOSSEN                                        000001DE  0000000000000012000000000000100000000000000100000000000000012000   WTWTBWTBFZ03504N00 

JAG02418305          2F0000000249600000000000120230401 KABEL - ABGESCHLOSSEN                                        000001DE  0000000000000025000000000000500000000000000120000000000000016000   WTWTBWTBFZ03504N00 

JAG02418306          2F0000000813300000000000120230401 KABEL - ABGESCHLOSSEN                                        000001DE  0000000000000040000000000000100000000000000100000000000000015000   WTWTBWTBFZ03504N00 

JAG02418307          2F0000004325300000000000120230401 KABEL - ABGESCHLOSSEN                                        000001DE  0000000000001055000000000000300000000000000080000000000000034000   WTWTBWTBFZ03509900 

JAG02DBC11665        4H0000000485700000000000120230401 LAMPE                                   NLA                  000001FR  0000000000000151000000000001020000000000000102000000000000010200   LILIALIAAZ0353LM00 

JAG02DBC11666        4J0000000422000000000000120230401 LAMPE                                                        000001FR  0000000000000148000000000001750000000000000100000000000000010000   LILIALIAAZ0353JC00 

JAG02DBC11667        4J0000000497000000000000120230401 LAMPE                                   NLA                  000001FR  0000000000000153000000000000950000000000000100000000000000010000   LILIALIAAZ0353JC00 

JAG02DBC11668        4H0000000811900000000000120230401 LEUCHTE, BLINKER                                             000001FR  0000000000000253000000000002030000000000000076000000000000015200   LILIALIAAZ0353JC00 

JAG02DBC11669        4H0000000811900000000000120230401 LEUCHTE, BLINKER                                             000001FR  0000000000000254000000000002030000000000000076000000000000015200   LILIALIAAZ0353JC00 

JAG02DBC1167         4K0000000036700000000000120230401 T-STUCK                                 NLA                  000001DE  0000000000000004000000000000060000000000000030000000000000005200   BRBRGBRGBZ04899900 

JAG02DBC11677        2H0000002405000000000000120230401 VERSTARKERMODUL - ZUNDUNG               02DAC11520        U  000001IT  0000000000000228000000000001520000000000000076000000000000007600   WTWTBWTBBZ01829900 

JAG02DBC11679        ZZ0000000046300000000000120230401 HALTERUNG                               NLA                  000001GB  0000000000000040000000000000300000000000000060000000000000009000   LILIALIAAZ03539900 

JAG02DBC11688        4H0000001792800000000000120230401 EINBRUCHSTEUERMODUL                     NLA                  000001DE  0000000000000162000000000000500000000000000105000000000000010500   WTWTBWTBBZ0182JC00 

JAG02DBC1169         4H0000005059100000000000120230401 MODUL, GESCHWINDIGK.REGL.               NLA                  000001DE  0000000000000278000000000000500000000000000150000000000000015500   WTWTBWTBBZ01829900 

JAG02DBC11701        4K0000000056000000000000120230401 AUFSPANNPLATTE                          NLA                  000001GB  0000000000000294000000000000050000000000000090000000000000033500   LILIALIAAZ0353JC00 

JAG02DBC12071        4J0000000484400000000000120230401 KABEL                                   NLA                  000001GB  0000000000000257000000000000350000000000000040000000000000072000   MRMRCMRCBZ0488JC00 

JAG02DBC12072D       2Z0000000000000000000000120180401 SCHLAUCH                                                     000001GB  0000000000000050000000000000500000000000000050000000000000020000   MRMREMRECZ02529900 

JAG02DBC12078        2J0000001330800000000000120230401 SICHERUNGSKASTEN                        02DBC11774        U  000001GB  0000000000000409000000000002070000000000000080000000000000015700   WTWTBWTBEZ0053JC00 

JAG02DBC12079        2J0000001330800000000000120230401 SICHERUNGSKASTEN                        02DBC11775        U  000001GB  0000000000000409000000000002070000000000000080000000000000015700   WTWTBWTBEZ0053JC00 

JAG02DBC12082        2O0000000095100000000000120230401 J-CONNECTOR                             NLA                  000001GB  0000000000000018000000000000250000000000000107000000000000012800   WTWTHWTHAZ00229900 

JAG02DBC12083        4K0000000591900000000000120230401 ANSCHLUSSKABEL                          NLA                  000001GB  0000000000000018000000000000190000000000000099000000000000012200   WTWTBWTBFZ03509900 

JAG02DBC12084        4H0000000978300000000000120230401 ANSCHLUSSKABEL                          NLA                  000001GB  0000000000000018000000000000190000000000000089000000000000013500   WTWTBWTBFZ03509900 

JAG02DBC12087        4J0000000265100000000000120230401 KABELBAUM, ANSCHLUSS                    NLA                  000001GB  0000000000000062000000000000150000000000000140000000000000017000   WTWTBWTBFZ0350JC00 

JAG02DBC12092        ZZ0000000537300000000000120230401 KABELBAUM                               NLA                  000001GB  0000000000000362000000000000400000000000000060000000000000036000   LILIALIAAZ0353JC00 

JAG02DBC12093        ZZ0000000537300000000000120230401 KABELBAUM                               NLA                  000001GB  0000000000000376000000000000350000000000000230000000000000031000   LILIALIAAZ03539900 

JAG02DBC12097        OP0000004177100000000000120230401 KABEL, BATTERIE                         02DBC12346        U  000001GB  0000000000000001000000000000000000000000000000000000000000000000   WTWTBWTBAZ0113JC00 

JAG02DBC12098        OP0000000339200000000000120230401 KABEL, BATTERIE                         02DBC12347        U  000001GB  0000000000000001000000000000000000000000000000000000000000000000   WTWTBWTBAZ0113JC00 

JAG02DBC12115        4H0000000996600000000000120230401 MODUL, KRAFTSTOFFPUMPE                                       000001GB  0000000000000068000000000000220000000000000125000000000000015000   WTWTBWTBBZ01829900 

JAG02DBC12116        4I0000001285800000000000120230401 ENTSTORMODUL                            NLA                  000001GB  0000000000000110000000000000360000000000000122000000000000012000   WTWTBWTBBZ01829900 

JAG02DBC12119        2J0000000413400000000000120230401 ZIGARETTENANZUNDERELEMENT                                    000001TN  0000000000000027000000000000400000000000000030000000000000003000   WTWTHWTHAZ00229900 

JAG02DBC12131        2J0000000056100000000000120230401 DIODE                                   NLA                  000001JP  0000000000000001000000000000030000000000000003000000000000003200   WTWTBWTBEZ00539900 

JAG02DBC12132        LP0000000141500000000000120230401 GLUEHLAMPE                              NLA                  000001GB  0000000000000001000000000000090000000000000009000000000000001400   BRBRDBRDAZ01169900 

JAG02DBC12133        LP0000000051400000000000120220701 GLUEHLAMPE                              NLA                  000001GB  0000000000000001000000000000120000000000000012000000000000001200   BRBRDBRDAZ01169900 

JAG02DBC12140        2H0000002055100000000000120230401 TEMPERATURWARNMODUL                     NLA                  000001GB  0000000000000105000000000001020000000000000051000000000000010200   WTWTBWTBBZ0182JC00 

JAG02DBC12142        4H0000005606200000000000120230401 SCHALTERFELD                            NLA                  000001GB  0000000000000452000000000001030000000000000103000000000000023000   BRBREBREAZ0460JC00 

JAG02DBC12143        4F0000005933000000000000120230401 SCHALTERFELD                            NLA                  000001GB  0000000000000464000000000001020000000000000102000000000000023000   BRBREBREAZ0460JC00 

JAG02DBC12174        LP0000000141500000000000120230401 GLUEHLAMPE                              NLA                  000001JP  0000000000000001000000000000060000000000000006000000000000002000   BRBRDBRDAZ01169900 

JAG02DBC12175        4F0000003975500000000000120230401 CARAVAN/ANHANGERMODUL                   NLA                  000001GB  0000000000002833000000000002300000000000000230000000000000023000   LILIALIAAZ0353LM00 

JAG02DBC12183        4I0000000543600000000000120230401 THERMOSCHALTER                                               000001GB  0000000000000048000000000000200000000000000030000000000000008000   WTWTBWTBDZ00159900 

JAG02DBC12190        4H0000000032400000000000120230401 FUEHRUNG                                NLA                  000001GB  0000000000000026000000000000100000000000000010000000000000002000   LILIALIAAZ0353LM00 

JAG02DBC12191        2F0000001634300000000000120230401 KABELBAUM                               NLA                  000001GB  0000000000000062000000000000100000000000000110000000000000065000   WTWTBWTBFZ03509900 

JAG02DBC12229        4F0000016879500000000000120230401 STEUERMODUL                             NLA                  000001GB  0000000000000271000000000002030000000000000051000000000000012700   WTWTBWTBBZ0182LM00 
